:020000040800F2
:1000000090B00024AD0200087138000819350008CE
:100010006938000861050008F96A0008000000005E
:10002000000000000000000000000000A15D0008CA
:10003000E906000800000000C1550008A95D00089D
:10004000C7020008C7020008C7020008C70200086C
:10005000C7020008C7020008F1060008C70200082E
:10006000C7020008C7020008C7020008C70200084C
:10007000C7020008C7020008C7020008C70200083C
:10008000C7020008C7020008C7020008C70200082C
:10009000C7020008C7020008C7020008C70200081C
:1000A000C7020008895F0008C7020008C7020008ED
:1000B000C7020008C7020008C7020008C7020008FC
:1000C000C7020008C7020008C7020008C7020008EC
:1000D000C7020008C7020008C7020008C7020008DC
:1000E00019070008C702000800000000C702000846
:1000F000C7020008C7020008C7020008C7020008BC
:10010000C7020008C7020008C7020008C7020008AB
:10011000C7020008C7020008C7020008C70200089B
:10012000C7020008C7020008C7020008C70200088B
:10013000C7020008C7020008C7020008C70200087B
:1001400000000000000000000000000000000000AF
:10015000C7020008C7020008C7020008F16A0008C9
:10016000C7020008C7020008C7020008C70200084B
:10017000C7020008C7020008C7020008000000000C
:10018000C7020008C7020008C7020008C70200082B
:10019000C7020008C7020008C7020008C70200081B
:1001A000C7020008C7020008C7020008C70200080B
:1001B000C7020008C7020008C7020008C7020008FB
:1001C000C7020008C7020008C7020008C7020008EB
:1001D000C7020008C7020008C7020008C7020008DB
:1001E000C7020008C7020008C7020008C7020008CB
:1001F000C7020008C7020008C7020008C7020008BB
:10020000C7020008C7020008C7020008C7020008AA
:10021000C7020008C7020008C7020008C70200089A
:10022000C7020008C7020008C7020008000000005B
:10023000C7020008C702000800000000C70200084B
:10024000C7020008C7020008C7020008C70200086A
:10025000C7020008C7020008C7020008C70200085A
:10026000C7020008C7020008C7020008C70200084A
:10027000C7020008C7020008C7020008000000000B
:10028000C7020008C7020008C702000800000000FB
:1002900000000000C7020008DFF80CD000F0CEF824
:1002A00000480047E96F000890B0002406488047E6
:1002B00006480047FEE7FEE7FEE7FEE7FEE7FEE74B
:1002C000FEE7FEE7FEE7FEE7D95E000899020008B8
:1002D0002DE9F05F0546002092469B46884606467B
:1002E000814640241BE0284641464746224600F00E
:1002F00094F853465A46C01A914110D311461846F5
:10030000224600F07BF82D1A67EB01084F46224683
:100310000120002100F072F817EB00094E41201E69
:10032000A4F10104DFDC484631462A464346BDE8D5
:10033000F09F00000649074A0868504343F239021B
:100340001044086040087047014908607047000089
:10035000000000246D4EC641D2B201E000F8012B2E
:10036000491EFBD270470022F6E710B513460A4635
:1003700004461946FFF7F0FF204610BD30B505468C
:100380002A460B4612F8010B13F8014B08B1A042A4
:10039000F8D01CB1002802D06D1CF1E7284630BD12
:1003A000CAB2401E10F8011F8A4202D00029F9D1BA
:1003B0000020704710B5002200E0521C835C8C5C6A
:1003C000A34201D1002BF8D1D8B2E1B2401A10BD3E
:1003D00030B504460020034600E05B1C934203D284
:1003E000E05CCD5C401BF8D030BD034611F8012B1A
:1003F00000F8012B002AF9D118467047202A04DBA7
:10040000203A00FA02F1002070479140C2F1200327
:1004100020FA03F3194390407047202A04DB203A66
:1004200021FA02F00021704721FA02F3D040C2F114
:100430002002914008431946704700001CB5094846
:100440000090094801900546009C06E0E06840F0F5
:10045000010394E8070098471034AC42F6D3FFF745
:100460001FFF0000A8900008C890000800000000CE
:10047000F0B5B5B044F2E0440125C5F6020400260B
:10048000206840F004002060206800F00400019023
:100490000198206840F004002060206800F004000B
:1004A0000190019801A801951F9600F071FD206947
:1004B000072740F020002061206940F6000400F08A
:1004C000200030903098402030900220CDE9310556
:1004D000C5F6020430AD339020462946349700F02B
:1004E00057FA8020309020462946349700F050FA81
:1004F00040F2600441F20040C2F20044C4F2010044
:1005000020604FF41640C4E901060C2060612046CB
:10051000C4E9036602F0DCFB47200021002200F062
:100520009BFB472000F084FB2068016841F020011C
:10053000016035B0F0BD000070B540F26004461EA9
:10054000C2F20044751C01224FF47A7320462946FA
:1005500002F0B2FCB0782E460028F3D170BD000046
:10056000FEE7000000000000B0B541F204050446BB
:10057000CEF2000501F0A8FC4DF683612A68C4F2B2
:100580001B31A0FB0101880C0021604309E000BF82
:10059000D443934288BF544219441A4621448142AD
:1005A0000CD22B689342F3D12B68934204BF2B6883
:1005B0009342EDD12B689342F3D0E9E7B0BD000040
:1005C00040F2400CC2F2004CACF8000000988CF8ED
:1005D00002108CF803208CF804308CF80500019888
:1005E0008CF8060070470000F0B5B5B044F2E04466
:1005F0000125C5F602040026206840F001002060B5
:10060000206800F0010001900198206840F001008E
:100610002060206800F001000190019801A8019578
:100620001F9600F0B5FC2069072740F010002061FC
:100630002069002400F01000309030984FF40070D2
:1006400030900220CDE93105C5F6020430AD33907B
:1006500020462946349700F09BF94FF48060309093
:1006600020462946349700F093F940F2081441F2ED
:100670000000C2F20044C4F2010020604FF4E130F7
:10068000C4E901060C20A662C4E905062046C4E9B7
:100690000366C4E9076602F01BFB25200021002247
:1006A00000F0DAFA252000F0C3FA2068016841F072
:1006B0002001016035B0F0BD4EF6FC50CEF20000D6
:1006C0000168C90148BF7047016841F0807101604D
:1006D00041F200000021CEF200004160016841F0CB
:1006E0000101016070470000704700000000000039
:1006F0008820C5F600000168C90708BF704740F2AE
:100700001441C5F602010A6882F001020A60012163
:1007100001607047000000008820C5F600000168F5
:10072000890458BF704740F21441C5F602010A68B7
:1007300082F002020A604FF400510160704700002D
:10074000EFF3108072B600BFFEE70000000000006B
:10075000F0B190F83510022918D180B540F20F425F
:100760000168C4F20202914214DC6F23C4F2020356
:10077000994225DC3F23C4F2020399423CDC10235A
:10078000C4F2020399425DD0282357E080214165DD
:100790000120704740F26F43C4F2020399421BDC10
:1007A00040F23F43C4F2020399422DDC40F2104371
:1007B000C4F20203994245D040F228433EE000BF14
:1007C0009F23C4F20203994228DC7023C4F202037F
:1007D000994237D0882331E040F29F43C4F20203AC
:1007E000994223DC40F27043C4F20203994229D0BB
:1007F00040F2884322E000BF4023C4F20203994242
:1008000020D058231AE000BF40F24043C4F2020354
:10081000994217D040F2584310E000BFA023C4F221
:10082000020399420ED0B82308E000BF40F2B8435B
:10083000C4F20203994205D040F2A043C4F202037D
:10084000994275D191424FF0040280F8352011DCB5
:100850006F20C4F20200814222DC3F20C4F2020079
:10086000814239DC1020C4F20200814259D0282094
:1008700054E000BF40F26F40C4F2020081421BDC32
:1008800040F23F40C4F2020081422DDC40F21040B1
:10089000C4F20200814244D040F228403EE000BF52
:1008A0009F20C4F20200814228DC7020C4F20200C2
:1008B000814236D0882031E040F29F40C4F20200ED
:1008C000814223DC40F27040C4F20200814228D011
:1008D00040F2884022E000BF4020C4F20200814282
:1008E0001FD058201AE000BF40F24040C4F202007E
:1008F000814216D040F2584010E000BFA020C4F260
:10090000020081420DD0B82008E000BF40F2B8409C
:10091000C4F20200814204D040F2A040C4F20200BE
:100920008142086820F001000860002080BD00BFFF
:100930000A6822F00E020A600A6822F001020A60C8
:10094000D0E9181CD0E916E30A6822F480720A6024
:1009500003F01F02012101FA02F2CEF80420826E98
:10096000CCF80420C26E32B1136823F48073136094
:10097000D0E91C235360002280F8342080F8351021
:10098000016D0029D1D08847002080BD0000000003
:100990002DE9F04F82B00F68002F00F0C38000F106
:1009A00026420A2302F1FF7442F20042C5F6020217
:1009B0004FEAB425904240F2040C08BF0923092DE8
:1009C000C5F6000C38BF4FEAB42300F1200E002416
:1009D00000264FF0000800930BE000BF08F101086B
:1009E0000F6837FA08F206F1040604F1020400F079
:1009F0009980012202FA08FA17EA0A09EED04F6834
:100A000047F01005122D12D16FF003020F2302EAF6
:100A1000580506F01C0293405EF805B00F692BEAFA
:100A2000030307FA02F21A434EF805204F68032227
:100A30000368A240122F6FEA020B23EA020207F0BA
:100A4000030303FA04F342EA0302026013D801220B
:100A5000BA4012F0061F0ED08268CB6802EA0B0281
:100A6000A3401A43826042683B0922EA0A0203FA61
:100A700008F31A434260C2688B68A34002EA0B0283
:100A8000FD0042EA0302C260A8D544F2F44340F2FA
:100A9000084AC5F60203C5F6000A0F271A6842F095
:100AA00002021A601A6802F00202019228F00302A0
:100AB000019B06F00C0352F80A509F40BD43009F73
:100AC00007FA03F32B4342F80A30DCF87C204B682A
:100AD00042EA0905DF0358BF22EA09059F034FF0E8
:100AE000B04ACCF87C50DCF8802042EA090558BFB7
:100AF00022EA0905DF02CCF88050DAF8002042EA49
:100B0000090558BF22EA09059B02CAF80050DCF823
:100B1000002042EA090558BF22EA0905CCF8005036
:100B20005CE700BF02B0BDE8F08F000000000000ED
:100B30000069084018BF0120704700000000000055
:100B4000002A08BF0904816170470000000000000E
:100B500041F20000C5F600400068000C704700003C
:100B600010B541F204004FF47A71CEF20000006833
:100B700000FB01F401F0A8F9B4FBF0F010BD000097
:100B800080B5032000F098F801F09EF944F2184176
:100B900047F6FA63C5F60201C0F6000340F2180CEE
:100BA0000A68C2F2004CC2F303229A5C02F01F02F0
:100BB000D040CCF80000096840F21C0201F00F019F
:100BC000C2F20042595C01F01F01C84010600F20C2
:100BD00000F00AF800281CBF012080BD00F018F8C2
:100BE000002080BD000000004EF6FC50CEF2000058
:100BF000016841F08071016041F200010020CEF2F5
:100C0000000148600A6842F001020A607047000073
:100C100081B044F2F440C5F60200016841F00201DF
:100C20000160006800F002000090009801B0704779
:100C3000002848BF70474EF2001300F01F01C0F3B8
:100C40004A10CEF20003012202FA01F143F820100B
:100C5000704700000000000070B54EF60C5C4FF0CD
:100C6000FF36CEF2000C00F1604505F56445DCF876
:100C70000030C3F3022E8EF00703042B28BF042399
:100C8000BEF1030406FA03F321EA030100F00F03A7
:100C900038BF0024043B0028634406FA04F048BF30
:100CA00003F10C05A14022EA00000843000128706E
:100CB00070BD0000000000004EF60C514FF6FF031F
:100CC000CEF200010A681A4060F30A2242F0806006
:100CD00040F0FD700860704780B501F0F5F844F20F
:100CE000184147F6FA62C5F60201C0F6000209682B
:100CF000C1F30321515C01F01F01C84040F218010B
:100D0000C2F20041086080BD80B501F085F844F270
:100D1000204147F6FA62C5F60201C0F600020968F2
:100D2000C1F30211515C01F01F01C84080BD0000F9
:100D300080B544F2384EC5F6020E5EF8103C5EF8FF
:100D4000101C5EF80C2CC1F3053CDEF80410BCF15D
:100D5000000F15D0C1F3CC0102F01002514300EE98
:100D6000101A03F003010229B8EE400A0ED089B927
:100D70005EF8381C890611D49FED361A1CE000BFBE
:100D800000218160C0E9001180BD00BF9FED301AD5
:100D900012E000BF9FED2D1A0EE000BF5EF8381C78
:100DA00049F20002C0F2D032C1F3C10122FA01F1CE
:100DB00001EE101AB8EE411ADEF800109FED263A47
:100DC0006FF35F2102EE101ADEF80010C1F3462126
:100DD000B8EE422A00EE032A00EE10CAB7EE003A3F
:100DE000B8EE400A81EE000A32EE031A02EE101A43
:100DF000B8EE422A20EE010A32EE031A80EE011A02
:100E0000BCEEC11A80ED001ADEF80010C1F30641F5
:100E100001EE101AB8EE411A31EE031A80EE011AF3
:100E2000BCEEC11A80ED011ADEF80010C1F30661B4
:100E300001EE101AB8EE411A31EE031A80EE010AE3
:100E4000BCEEC00A10EE101A816080BD0024744A06
:100E500020BCBE4B0024744C000000390000000090
:100E600080B544F2404EC5F6020E5EF8183C5EF8BE
:100E7000181C5EF8142CC1F3055CDEF80410BCF1FC
:100E8000000F15D0C1F3CC0102F48072514300EE83
:100E9000101A03F003010229B8EE400A0ED089B9F6
:100EA0005EF8401C890611D49FED361A1CE000BF85
:100EB00000218160C0E9001180BD00BF9FED301AA4
:100EC00012E000BF9FED2D1A0EE000BF5EF8401C3F
:100ED00049F20002C0F2D032C1F3C10122FA01F19D
:100EE00001EE101AB8EE411ADEF800109FED263A16
:100EF0006FF35F2102EE101ADEF80010C1F34621F5
:100F0000B8EE422A00EE032A00EE10CAB7EE003A0D
:100F1000B8EE400A81EE000A32EE031A02EE101A11
:100F2000B8EE422A20EE010A32EE031A80EE011AD0
:100F3000BCEEC11A80ED001ADEF80010C1F30641C4
:100F400001EE101AB8EE411A31EE031A80EE011AC2
:100F5000BCEEC11A80ED011ADEF80010C1F3066183
:100F600001EE101AB8EE411A31EE031A80EE010AB2
:100F7000BCEEC00A10EE101A816080BD0024744AD5
:100F800020BCBE4B0024744C00000039000000005F
:100F90002DE9F0470446C07844F22C480007C5F616
:100FA00002082DD5606E4FEA305103293ED8DFE8A4
:100FB00001F0030B172000BFD8F8001041F40031F6
:100FC000C8F8001015E000BF201D022104F0FCFA53
:100FD000064668B16078C00716D1354653E000BFB9
:100FE00004F12400022104F083FB06460028F1D11D
:100FF000606ED8F8241021F440110843C8F824008A
:1010000000266078C007E8D0606D042800F2788080
:101010003546DFE800F01B27110303002F464DB3D0
:101020006078800740F1718031E000BF0126607870
:10103000C007D2D0E8E700BF04F12400002104F08B
:1010400057FB0546002D2F46EAD113E0D8F80000E3
:10105000354640F40030C8F80000002D2F46DFD19F
:1010600008E000BF201D002104F0AEFA0546002D67
:101070002F46D5D1D8F82400616D20F00700002557
:101080000843C8F824003746607880073DD5A06D36
:101090004FEAB010042800F27980DFE800F0151F55
:1010A0000B0303002E460DB36078400740F17380B8
:1010B0002FE000BF04F12400002104F019FB0546D5
:1010C000002D2E46F0D111E0D8F8000040F4003099
:1010D000C8F80000002D2E46E6D107E0201D0021B3
:1010E00004F072FA0546002D2E46DDD1D8F8240012
:1010F000A16D20F4E07000250843C8F8240004E046
:101100000125012760788007C1D43E4660784007FA
:1011100041D5D4F8A4004FEA7050042800F2808032
:10112000DFE800F016200C04040000BFA9460DB350
:101130006078000740F17A8031E000BF04F12400BC
:10114000002104F0D5FA0546002DA946F0D111E0A2
:10115000D8F8000040F40030C8F80000002DA9467F
:10116000E6D107E0201D002104F02EFA0546002DEF
:10117000A946DDD1D8F82C00D4F8A41020F46000E2
:1011800000250843C8F82C0005E000BF0125012612
:1011900060784007BDD4B1466078000746D5D4F8E2
:1011A000A8004FEA3060042800F21281DFE800F066
:1011B0001A241004040000BF2F462DB3E0788007E6
:1011C00038D43E466078C00640F1A98041E000BFB7
:1011D00004F12400002104F08BFA0546002D2F466F
:1011E000ECD111E0D8F8000040F40030C8F800005D
:1011F000002D2F46E2D107E0201D002104F0E4F984
:101200000546002D2F46D9D1D8F82C00D4F8A810C7
:1012100020F0E06000250843C8F82C0006E000BF7D
:1012200001254FF0010960780007B8D44F46E078F7
:101230008007C6D5A06C4FEA3010032844D8DFE8F9
:1012400000F003232D0300BF2E467DB36078C00657
:1012500065D5E06D4FEA3030042800F2C180DFE848
:1012600000F0434D39030300002D2F464ED0607827
:10127000800658D43E466078400667D4374660788A
:10128000000640F1078175E0D8F8000040F4003016
:10129000C8F80000002D2E46D8D107E0201D0221FD
:1012A00004F092F90546002D2E46CFD1D8F8200043
:1012B000A16C20F0300000250843C8F820003E460D
:1012C0006078C0062BD5C4E7012501266078C006EA
:1012D000BFD424E004F12400002104F009FA0546FB
:1012E000002D2F46C3D111E0D8F8000040F40030A3
:1012F000C8F80000002D2F46B9D107E0201D0021BD
:1013000004F062F90546002D2F46B0D1D8F824002C
:10131000E16D20F4E04000250843C8F8240037467A
:1013200060788006A6D5206E4FEA3040052800F28E
:101330007380DFE800F0037F5D030303002D2E467A
:1013400000F08180607840067FF598AFD4F8AC005B
:101350004FEA3070052867D8DFE800F004845404B1
:10136000040400BF002D2F4600F085806078000641
:1013700040F19080E06E58B1B0F1005F10D0B0F154
:10138000805F1FD1D8F8000040F40030C8F800009A
:101390002E466DB1E078C00700F093807EE000BF7C
:1013A000201D012104F010F90546002D2E46F1D133
:1013B000D8F82400E16E20F0405000250843C8F81A
:1013C000240067E001250126E078C00766D178E0B7
:1013D00001250127E07880073FF52CAFF1E600BF3B
:1013E00001250127607880063FF59DAF42E700BFE9
:1013F00004F12400012104F07BF90546002D2E465E
:10140000A0D120E004F12400012104F071F9054687
:10141000002D2F46AAD12EE0012501266078400636
:101420003FF594AF2AE700BF012501276078000649
:10143000A0D42FE0201D012104F0C6F80546002DA0
:101440002E467FF47FAFD8F82400216E20F4E020F0
:1014500000250843C8F824003E46607840067FF522
:101460000DAF73E7201D012104F0AEF80546002DF5
:101470002F467FF47BAFD8F82C00D4F8AC1020F0C6
:10148000E04000250843C8F82C0037466078000685
:101490003FF570AF3E46E078C00712D0606C03287D
:1014A00000F2B880DFE800F002A0AC02A9464DB916
:1014B000D8F82000616C20F0030000250843C8F82C
:1014C0002000B146A078400602D44F461AE000BF83
:1014D000D8F8D40340F48070C8F8D403FFF740FB79
:1014E000064600BFD8F8D403C00507D4FFF738FB81
:1014F000801B6428F6D90325032703E0002D2F461F
:1015000000F08C802078C00700F0DE80A06F4FEAEA
:10151000F000052800F2C080DFE800F004C4B20447
:10152000040400BF002D2E4600F0C58020788007FF
:1015300000F1CF8037462078400700F1DF803E463B
:101540002078800600F1F08037462078400600F1D0
:1015500003813E462078000600F116813746206858
:10156000010740F12981D4F88010B1F5805F0DD1D9
:1015700004F12400022104F0BBF8002818BF012761
:101580002068C10640F11B810AE000BFD8F828207E
:1015900022F440521143C8F82810C10640F10F81CF
:1015A000D4F89410B1F5807F12D104F12400022107
:1015B00004F09EF8002818BF01272068000300F1FE
:1015C00001813E46A078400740F1578115E100BFF8
:1015D000D8F82C2022F440721143C8F82C100003D4
:1015E00000F1F080EDE700BFD8F8000040F40030D3
:1015F000C8F80000002DA9467FF464AF58E700BF8B
:10160000201D022103F0E0FF0546002DA9467FF4CE
:1016100059AF4DE701254FF0010953E7D8F84410C1
:10162000D4F8B000414011F4407F11D0D8F84410F4
:10163000D8F8442042F48032C8F84420D8F8442036
:1016400021F4407122F48032C8F84420C8F84410D4
:10165000B0F5807F40F0A682FFF782FA064641F29D
:10166000883A0325032700BFD8F84400800700F11B
:101670009782FFF775FA801B5045F5D942E700BF06
:1016800004F12400012104F033F80546002D2E4614
:101690007FF44CAF0FE000BF0125012620788007C2
:1016A00017D447E7201D012103F08EFF0546002DCA
:1016B0002E467FF43BAFD8F82800A16F20F0380009
:1016C00000250843C8F828003E46207880077FF5AB
:1016D00031AF606F052800F2BB81DFE810F0070032
:1016E000E1017D0107000700070000BF002D2F4624
:1016F00000F0DF81207840077FF521AFD4F890001B
:10170000052800F2AD81DFE810F00700E301730166
:1017100007000700070000BF002D2E4600F0E18102
:10172000207880067FF510AFD4F88C004FEA307037
:10173000052800F29D81DFE810F00700E501670150
:1017400007000700070000BF002D2F4600F0E381CF
:10175000207840067FF5FDAED4F898004FEAB0201F
:10176000052800F28D81DFE810F00700E7015B013A
:1017700007000700070000BF002D2E4600F0E5819E
:10178000207800067FF5EAAED4F89C004FEA70306E
:10179000052800F27D81DFE810F00700E9014F0124
:1017A00007000700070000BF002D2F4600F0E7816B
:1017B000206801073FF5D7AEC1063FF5F1AE000343
:1017C0007FF5FFAED4F8A000B0F5003F10D0B0F523
:1017D000803F07D000284BD1201D002103F0F4FEEC
:1017E00005E000BF04F12400022103F081FF05465B
:1017F0002E46CDB1A07840073FD5D4F88400B0F58F
:10180000401F0BD0B0F5001F1ED0B0F5801F73D164
:10181000D8F8000040F40030C8F800002F46E5B1C9
:10182000A078C0072DD16CE0D8F82C00D4F8A01017
:1018300020F4403000250843C8F82C003E46A0782C
:1018400040071AD5D9E700BF04F12400012103F0B5
:101850004FFF0546002D2F46E2D1D8F82800D4F8D6
:10186000841020F4401000250843C8F8280004E044
:1018700001250126A0784007BFD43746A078C007CD
:101880003FD0E06CB0F5803F1ED078BBD8F80000A8
:1018900040F40030C8F800002E46EDB12068810009
:1018A00033D481033CD4C10250D4C10058D4810246
:1018B00061D4410069D4B0F1FF3F77DD002E18BF3D
:1018C00001263046BDE8F087201D022103F07CFE92
:1018D0000546002D2E46E1D1D8F82000E16C20F419
:1018E000803000250843C8F820000AE001250126C1
:1018F00020688100D5D508E001250127A078C00720
:10190000BFD13E4620688100CBD504F124000221DE
:1019100003F0EEFE002818BF012620688103C2D51F
:10192000E16F6FF0010202EB3122022A0AD34FEA83
:1019300031223AB1012A06D1D8F8002042F400320F
:10194000C8F80020E5B30126C102AED5D8F82410AE
:10195000226F21F000411143C8F82410C100A6D520
:1019600058F81C1CD4F8B42021F48041114348F8E5
:101970001C1C81029DD5D8F82410A26E21F0807124
:101980001143C8F82410410095D558F81C1C21F4C7
:10199000004148F81C1CD4F8B81058F81C2C11430E
:1019A00048F81C1CB0F1FF3F3FF788AFD8F8200083
:1019B000216D20F040500843C8F820007EE700BFAA
:1019C000D8F8282022F440721143C8F82810C10228
:1019D0007FF56BAFBAE700BF04F12400012103F0EB
:1019E00087FE0546002D2F467FF484AE61E000BFE0
:1019F00004F12400012103F07BFE0546002D2E4654
:101A00007FF48EAE6DE000BF04F12400022103F0EC
:101A10006FFE0546002D2F467FF49AAE7BE000BF97
:101A200004F12400022103F063FE0546002D2E463A
:101A30007FF4A6AE89E000BF04F12400022103F088
:101A400057FE0546002D2F467FF4B2AE97E000BF4B
:101A500001250127207840073FF550AE6FE500BF14
:101A600001250126207880063FF55EAE6CE500BFBB
:101A700001250127207840063FF56EAE69E500BFDD
:101A800001250126207800063FF57EAE66E500BF01
:101A900001250127206801077FF58EAE63E500BFB1
:101AA000201D012103F090FD0546002D2F467FF4F7
:101AB00021AED8F82800616F20F007000025084308
:101AC000C8F828003746207840077FF538AD15E67E
:101AD000201D012103F078FD0546002D2E467FF4E0
:101AE0001FAED8F82C00D4F8901020F00700002585
:101AF0000843C8F82C003E46207880067FF524ADC8
:101B000012E600BF201D002103F05EFD0546002DFA
:101B10002F467FF41DAED8F82800D4F88C1020F0A2
:101B2000E04000250843C8F82800374620784006E2
:101B30007FF50FAD10E600BF201D002103F044FD2E
:101B40000546002D2E467FF41BAED8F82C00D4F8A5
:101B5000981020F4E05000250843C8F82C003E46B9
:101B6000207800067FF5FAAC0EE600BF201D0021AC
:101B700003F02AFD0546002D2F467FF419AED8F854
:101B80002C00D4F89C1020F4604000250843C8F8CD
:101B90002C003746206801077FF50EAEE3E400BF56
:101BA000D4F8B0004FF6CF7358F81C2CC0F2FF03E6
:101BB00000F4407122F47C5203EA10136FF31F30DB
:101BC000B1F5407F08BF1A43002548F81C2CD8F80F
:101BD00044100843C8F84400FFF777BC0000000039
:101BE0002DE9F04381B0002800F0128142F2000993
:101BF0000446C5F20029D9F8000000F00F00884221
:101C00000DD2D9F8000020F00F000843C9F80000F9
:101C1000D9F8000000F00F00884240F0F9802068F9
:101C200044F218464207C5F602060AD5226933680F
:101C300003F070039A4204D9336823F070031A4307
:101C4000326002070AD56269736803F070039A4232
:101C500004D9736823F070031A437260C2060AD570
:101C6000A269736803F4E0639A4204D9736823F4A9
:101C7000E0631A43726082060AD5E269B36803F032
:101C800070039A4204D9B36823F070031A43B26018
:101C900010F002020AD0E368376807F00F07BB4272
:101CA00004D9376827F00F073B433360C3073FD0A1
:101CB000306820F47062D4E901031A4332600128CD
:101CC00056F8182C0AD0032804D002280AD192030F
:101CD0000BD49DE0920108D49AE000BFD20504D451
:101CE00096E000BF520740F19380884656F8081CE2
:101CF00021F00701084346F8080CFEF731FF0546BE
:101D000041F2883756F8080C616800F03800B0EBF3
:101D1000C10F09D0FEF724FF401BB842F2D90320BF
:101D200001B0BDE8F08300BF2068414600F0020228
:101D300052B1E268336803F00F039A4204D2336869
:101D400023F00F031A433260D9F8002002F00F028B
:101D50008A420CD9D9F8002022F00F020A43C9F8B0
:101D60000020D9F8002002F00F028A4250D141072A
:101D70000AD52169326802F07002914204D23268B9
:101D800022F070021143316001070AD5616972685F
:101D900002F07002914204D2726822F07002114384
:101DA0007160C1060AD5A169726802F4E0629142CD
:101DB00004D2726822F4E0621143716080060AD591
:101DC000E069B16801F07001884204D2B16821F085
:101DD00070010843B06000F077F8316847F6FA62A6
:101DE000C0F6000240F21803C1F30321C2F200431F
:101DF000515C01F01F0240F21401C2F20041D040D8
:101E000018600968084601B0BDE8F043FEF7ECBE73
:101E1000012001B0BDE8F08380B5FEF75DFF44F21C
:101E2000184147F6FA62C5F60201C0F600020968D9
:101E300001F00F01515C01F01F01C84040F21C018C
:101E4000C2F20041086080BD80B5FEF745FF44F254
:101E5000184147F6FA63C5F60201C0F6000340F2E6
:101E60001C0C0A68C2F2004C02F00F029A5C02F0ED
:101E70001F02D040CCF800004968C1F30211595C40
:101E800001F01F01C84080BD80B5FEF725FF44F278
:101E9000184147F6FA63C5F60201C0F6000340F2A6
:101EA0001C0C0A68C2F2004C02F00F029A5C02F0AD
:101EB0001F02D040CCF800004968C1F30221595CF0
:101EC00001F01F01C84080BD44F20041C5F6020187
:101ED0000869C0F3C200032816D002280ED098BBB0
:101EE0000868800649F20000C0F2D03058BF704741
:101EF0000968C1F3C101C840704700BF47F6400000
:101F0000C0F27D10704700BF8A6A886AC0F3051C62
:101F1000C86ABCF1000F4B6B1CD000F001004042BE
:101F200000EAD3006FF35F3000EE100A02F0030006
:101F30000228B8EE400A0FD090B90868800613D482
:101F40009FED251A1DE000BF40F60010C0F23D00D5
:101F5000704700BF002070479FED1E1A11E000BFC0
:101F60009FED1B1A0DE000BF086849F20002C0F2A5
:101F7000D032C0F3C10022FA00F001EE100AB8EE30
:101F8000411A086B9FED153A6FF35F2002EE100ABD
:101F9000086BC0F34620B8EE422A013000EE032A57
:101FA00000EE10CAB7EE003AB8EE400A81EE000A21
:101FB00032EE031A20EE010A01EE100AB8EE411AC1
:101FC00080EE010ABCEEC00A10EE100A704700BF96
:101FD0000024744A20BCBE4B0024744C000000391D
:101FE00070B3F0B581B00446007844F20046C007F3
:101FF000C5F6020626D12078800740F1BA80306904
:1020000010F03801B06A3FD0182908BF5FEA80702D
:102010003AD0E0683168002860D021F01901084307
:102020003060FEF79DFD05463068400748D4FEF756
:1020300097FD401B0228F7D9032001B0F0BD00BF77
:1020400001207047306900F03801B06A102905D0CE
:1020500018290BD100F00300022807D13068800353
:10206000C9D560680028C6D1C2E000BF6168306889
:1020700000294DD0B1F5A02F42D0B1F5803F5DD100
:1020800040F4803060E000BF30684007E06802D56F
:10209000002800F0AD80316821F01901084330605C
:1020A000FEF75EFD054600BF3068400708D4FEF726
:1020B00057FD401B02284FF00300F5D901B0F0BDD9
:1020C000FEF746FD41F203018842716820694BD852
:1020D00021F47C3141EA00304AE000BF21F00100E8
:1020E0003060FEF73DFD05463068400741D5FEF7FC
:1020F00037FD401B02284FF00300F5D9DEE700BF93
:1021000040F480203060306840F480301CE000BF34
:1021100020F480303060306820F480203060FEF79A
:102120001FFD0546306880037FF565AFFEF718FD9B
:10213000401B64284FF00300F4D9BFE720F480303F
:102140003060306820F480203060FEF709FD0546DD
:10215000306880033FF54FAFFEF702FD401B642857
:10216000F6D9032001B0F0BD21F0FE4141EA006044
:1021700070602078C00628D5306900F03801B06A58
:10218000082905D0182963D100F0030001285FD188
:102190003068C00502D5E069802829D1FEF7D8FC57
:1021A00041F204010C2288426FF07C5038BF0422B7
:1021B0004FF018013CBF6FF0F8401A21B358276A5E
:1021C000184007FA01F10843B0502078000713D4F3
:1021D0002078800626D4207840074FD4656A002DE9
:1021E00000F05E81306900F03800182840F09E80D1
:1021F000012001B0F0BD00BF60690028706F53D0AE
:1022000040F001007067FEF7ABFC0546706F800779
:10221000DED4FEF7A5FC401B0228F7D9032001B04D
:10222000F0BD00BFA069002830685BD040F480504A
:102230003060FEF795FC054630688004CBD4FEF78D
:102240008FFC401B0228F7D9032001B0F0BD00BF6E
:10225000E0690028306857D040F080003060FEF719
:102260007FFC05463068C00598D4FEF779FC401B1A
:1022700002284FF00300F5D920E700BFD6F800048C
:1022800040F48070C6F80004FEF76AFC054600BF03
:10229000D6F80004C00519D4FEF762FC401B642880
:1022A000F6D9032001B0F0BD20F001007067FEF701
:1022B00057FC0546706F80077FF58AAFFEF750FC2C
:1022C000401B02284FF00300F4D9F7E6A168306FF5
:1022D000002955D005294BD0012969D140F00100D2
:1022E0006CE000BF20F480503060FEF739FC0546FA
:1022F000306880047FF56FAFFEF732FC401B022888
:102300004FF00300F4D9D9E620F080003060FEF7EA
:1023100027FC05463068C0057FF557AFFEF720FC67
:10232000401B02284FF00300F4D9C7E6306820F0C4
:1023300080703060FEF714FC022D05460CD100BF02
:10234000306880014CD5FEF70BFC401B02284FF093
:102350000300F5D9B2E600BF3068800140F1A080EB
:10236000FEF7FEFB401B03284FF00300F4D3A5E665
:1023700040F004003067306F40F001001EE000BF05
:1023800020F001003067306F20F004003067FEF766
:10239000E7FB054641F28837306F80077FF51EAFB7
:1023A000FEF7DEFB401BB8424FF00300F4D985E690
:1023B00020F001003067306F20F004003067FEF736
:1023C000CFFB054641F28837306F80073FF506AFF7
:1023D000FEF7C6FB401BB8424FF00300F4D96DE690
:1023E00004F12807B06A40F2F33188438ECF0843E6
:1023F000591E40EA02104FF47E426FF35F21B06233
:1024000002EB47204FF4FE0280B2E36B0844A16B5D
:1024100002EB01414FF0FE4201F4FE0102EB0362C8
:10242000084402F0FE4108443063F06A4FF6F87148
:1024300020F00100F062706BA26C884340EAC20099
:102440007063F06A216C20F00C000843F062F06ABF
:10245000616C20F002000843F062F06A40F48030C2
:10246000F062F06A40F40030F062F06A40F48020DC
:10247000F062F06A40F00100F062306840F0807075
:102480003060FEF76DFB04463068800108D4FEF72B
:1024900067FB001B02284FF00300F5D90EE600BFD2
:1024A000002001B0F0BD0000411E0020B0EB116F14
:1024B00002D00120704700BF4EF21002F023CEF28E
:1024C000000251604EF62351CEF200010B7007213D
:1024D000906011607047000070470000000000002D
:1024E000704700000000000070470000000000007E
:1024F00090F83C20012A4FF0020226D010B580F857
:102500003D2040F200430268C4F2010342F4806CB3
:102510009C455368D2F808C002BF23F4700E4B6884
:1025200043EA0E038C6823F0700E0B682CF08001D8
:1025300043EA0E035360214391600022012180F899
:102540003D1080F83C20BDE8104010467047000068
:10255000B0B110B5044690F83D0028B9002084F8C9
:102560003C00204600F010F8022084F83D0020686E
:10257000211D03F011FD012084F83D00002010BD55
:10258000012070470000000000210068C4F2010132
:10259000884218BF704780B582B044F2F0400022F4
:1025A000C5F60200016841F00101016000680021E8
:1025B00000F00100019001981920FEF74DFB192051
:1025C00002B0BDE88040FEF733BB00000000000011
:1025D00000680722C0F20102C16841F00101C16038
:1025E00081681140062918BFB1F5803F02D1002053
:1025F000704700BF016841F0010101600020704791
:1026000090F83C20012A4FF0020200F09F8080B534
:1026100080F83D208822D0F800C0CFF6CE72DCF8DA
:1026200008301A40CCF808200B686F2B2ADC2F2BBF
:1026300036DD4F2B46DC302B74D0402B40F07E80B3
:10264000D1F804E0C968DCF82030DCF8202022F062
:102650000102CCF82020DCF8182022F0F00242EA37
:10266000011123F00A02CCF8181042EA0E01CCF84E
:1026700020104FF68872DCF80810CFF6CF721140A8
:10268000473159E0B3F1101F12DB2F21C0F21001C6
:102690008B423DDCB3F1101F44D020213EE000BF4F
:1026A000002B18BF102B3DD0202B3BD046E000BFA5
:1026B000702B6FD0B3F5005F00F08080B3F5801F02
:1026C00030D03BE0502B43D0602B37D1D1F804E021
:1026D000C968DCF8203023F01003CCF82030DCF897
:1026E0001830DCF8202023F4704322F0A00243EAE3
:1026F0000131CCF8181042EA0E11CCF820104FF638
:102700008872DCF80810CFF6CF721140673113E001
:102710003021C0F210018B4204D04021C0F21001E0
:102720008B420BD14FF68872DCF80810CFF6CF72CF
:102730001140194341F00701CCF808100022012193
:1027400080F83D1080F83C20BDE88040104670477E
:10275000D1F804E0C968DCF82030DCF8202022F051
:102760000102CCF82020DCF8182022F0F00242EA26
:10277000011123F00A02CCF8181042EA0E01CCF83D
:1027800020104FF68872DCF80810CFF6CF72114097
:102790005731D1E701F1040E9EE80C40DCF8081037
:1027A0001A4321F47F4142EA0E221143CCF808106B
:1027B000DCF8081041F07701BEE700BF01F1040E1C
:1027C0009EE80C40DCF808101A4321F47F4142EAED
:1027D0000E221143CCF80810DCF8081041F48041B7
:1027E000AAE70000000000007047000000000000A1
:1027F00010B5044600680169890744BFC1685FEAF3
:1028000081713FD40169490744BFC1685FEA4171E2
:1028100044D40169090744BFC1685FEA01714BD420
:102820000169C90644BFC1685FEAC16150D401694A
:10283000C9071CBFC1685FEAC17157D101690906A8
:1028400044BFC1685FEA016158D40169C90544BF4A
:10285000C1685FEA016159D40169490644BFC16892
:102860005FEA41615AD40169890646BFC1685FEADF
:10287000816110BD6FF0200101612046BDE810406C
:10288000FFF732BE6FF002010161012121778069FB
:1028900080074BD02046FFF7A7FF4DE06FF0040103
:1028A000016102212177806910F4407F48D02046E1
:1028B000FFF79AFF4AE000BF6FF0080101610421B1
:1028C0002177C069800745D02046FFF78DFF47E09C
:1028D0006FF01001016108212177C06910F4407F79
:1028E00042D02046FFF780FF44E000BF6FF00101B7
:1028F0000161204600F04CF820689FE76FF08001EE
:1029000001612046FFF7ECFD20689EE76FF48071BF
:1029100001612046FFF7E0FD20689DE76FF0400170
:102920000161204600F0BCF820689CE7204600F0DA
:1029300027F8204600F028F800202077206861E77B
:10294000204600F01DF8204600F01EF800202077F9
:1029500020685EE7204600F013F8204600F014F8E7
:102960000020207720685BE7204600F009F8204629
:1029700000F00AF800202077206858E700000000E7
:1029800070470000000000007047000000000000D9
:1029900040F2BC310068C2F200410968884218BFA9
:1029A000704770B542F2184640F2EC05C5F60206D3
:1029B000C2F2004508214FF48042C6F800144FF0DF
:1029C0008041316032603160E97C21BB2A8AD307C3
:1029D0004FF0800308BF4FF4000394074FF40074D6
:1029E000336058BF4FF0007453074FF400633460F6
:1029F00058BF4FF0006314074FF00204336058BF14
:102A00004FF40034D2064FF02002C6F8004458BFFD
:102A10004FF40012326001316A7DCBB2E974934207
:102A20000CD3298AAA7B4B1C01219CB201FA02F229
:102A300000219442E974A8BF0B462B820022426217
:102A4000AA8840F2BC34C9B2C2F2004402FA01F1D1
:102A5000C1622046FFF7BCFD4FF40020C6F8000419
:102A6000287CE97C02F0D8FEE87C18B1BDE8704013
:102A7000704700BF206840F29412C2F20042406AE0
:102A8000A9881268801AC1EBC1010844E988C0F323
:102A9000CF028A4228BFC108A980BDE870407047B4
:102AA00070470000000000007047000000000000B8
:102AB00070470000000000007047000000000000A8
:102AC000704700000000000070B5016840F62F025A
:102AD000CB690E681A408C68202A0DD106F02002BE
:102AE00004F08055521919D0C16E002900F0C18040
:102AF000BDE87040084700BF40F60F0213420DD0FA
:102B0000012240F22015C1F20002C0F2004504EAA1
:102B1000020C06EA050212EB0C0225D1DA0209D5F5
:102B200014F4800206D04FF480120A62BDE87040AF
:102B3000FFF7C2BF1A0605D506F0800204F40005AF
:102B4000521925D15A0619D516F0400216D00A6836
:102B500022F040020A602021C0F8801000210167A5
:102B6000BDE8704000F014BADA0718BF16F480729E
:102B70001ED19A0704F0010E26D430E019020DD5BB
:102B800016F080410AD0BDE87040FFF791BF00BF4A
:102B9000016F00296DD0BDE870400847D90168D5A4
:102BA000B6F1FF3FC8BF70BDBDE87040FFF77CBF06
:102BB00001220A62D0F8882042F00102C0F8882081
:102BC0009A0704F0010E0AD5BEF1000F07D00222C9
:102BD0000A62D0F8882042F00402C0F888205A0720
:102BE0000AD5BEF1000F07D004220A62D0F888206F
:102BF00042F00202C0F888201A070CD506F0200225
:102C000052EA0C0207D008220A62D0F8882042F06B
:102C10000802C0F888201A050BD516F0806208D08B
:102C20004FF400620A62D0F8882042F02002C0F817
:102C30008820D0F88820E2B19A060BD506F0200251
:102C400004F08053D21805D0C26E1AB104469047E2
:102C500020462168D0F888208B6803F0400302F0FA
:102C60002802D21806D10446FFF72AFF0020C4F834
:102C7000880070BD0A684FF6FE7322F490720A60F5
:102C80008A68CEF6FF731A408A602022C0F884203A
:102C90000022C2668A68520616D58A6822F040026F
:102CA0008A60816F81B146F2D92204460846C0F697
:102CB00000020A65FDF74CFD0028DAD0A06F016D17
:102CC000BDE87040084700BFBDE87040FFF7F8BEA0
:102CD00010B5A8B10446D0F8800028B9002084F8C7
:102CE0007C00204600F028F82420C4F880002068EA
:102CF000016821F001010160204603F0F5FA08B1F6
:102D0000012010BDA06A10B1204603F001FA20682E
:102D1000416821F490414160816821F02A0181607D
:102D2000016841F0010101602046BDE8104003F058
:102D30005FBA00000000000070B586B044F20041A8
:102D40000068C4F20001002688420596CDE90366BA
:102D50000296019602D006B070BD00BF44F2E0407A
:102D60000024C5F60200C5F6020401AD816841F4F5
:102D700000318160816801F400310091009901689F
:102D800041F0010101600068294600F00100009057
:102D90000098042001900220029004902046FDF744
:102DA000F7FD08202946CDE9010620460396FDF7E8
:102DB000EFFD06B070BD00002DE9F04381B0044680
:102DC000D0F8840020280DD10E460120002918BF1C
:102DD000002A03D101B0BDE8F08300BF94F87C0065
:102DE000012803D1022001B0BDE8F0831D46012077
:102DF00084F87C000020C4F888002220C4F88400F5
:102E00001746FDF7ADFEA4F85C708046A4F85E702E
:102E1000A168C9B1B1F1805F12D0B1F5805F17D15F
:102E20002069FF27014600281CBF314600260028E4
:102E300008BF40F2FF17B1460E46A4F8607017E0D5
:102E4000206918B13F2706E0206918B17F2702E00A
:102E5000002700E0FF274FF00009A4F8607007E0AA
:102E6000384006F8010BB4F85E000138A4F85E00A3
:102E7000B4F85E0080B12021002220464346009530
:102E800003F0BAFD90B92068002E406AE8D13840BE
:102E900029F8020B0026E6E72020C4F88400002071
:102EA00084F87C0001B0BDE8F08300BF032001B0CE
:102EB000BDE8F083000000002DE9F04182B0044637
:102EC000D0F8800020280DD10F460120002918BF1E
:102ED000002A03D102B0BDE8F08100BF94F87C0065
:102EE000012803D1022002B0BDE8F0811D46012077
:102EF00084F87C000020C4F888002120C4F88000F9
:102F00001646FDF72DFEA4F854608046A4F85660DE
:102F1000A168B1F5805F01D1206918B13E46002754
:102F20000BE000BF002608E0206816F8011B816254
:102F3000B4F856000138A4F85600B4F8560088B129
:102F40008021002220464346009503F055FD88B9B4
:102F5000002EE9D137F8020B216800266FF35F20BD
:102F60008862E5E74021002220464346009503F0B1
:102F700043FD18B1032002B0BDE8F0812020C4F861
:102F80008000002084F87C0002B0BDE8F0810000E1
:102F90007047000000000000F0B585B044F2E0404A
:102FA0000024C5F60200C5F602046D46002601683D
:102FB000022741F010010160016801F01001009149
:102FC0000099016841F0020101600068294600F0A3
:102FD0000200009000980420009004F58050CDE994
:102FE00001660397FDF7D4FC01A94FF480500090CF
:102FF0000120C1C120462946FDF7CAFCFDF738FA79
:1030000040F298102021C2F200408185A0F82611DC
:10301000A0F85E10A0F85811A0F89010A0F88A113E
:10302000A0F8C210A0F8BC11A0F8F410A0F8EE119E
:103030000121067048F6A660C0F6000000F014F802
:1030400005B0F0BD0000000010B504460020C5F634
:1030500002004FF480510022FDF772FD2046BDE8CA
:103060001040FDF769BA00002DE9F04F83B08346A8
:1030700000200191C5F602004FF480510122FDF7B6
:103080005FFD42F21070FDF76FFA5846FDF754FAF3
:1030900048F660703B21C0F600005A4604F054FC2C
:1030A00048F6AA7749F2990648F6877549F2150855
:1030B0004FF0000A0DF10A04C0F60007C0F6000642
:1030C000C0F60005C0F600080BE000BF48F2A060A3
:1030D000C0F20100FDF748FABAF1130F0AF1010A34
:1030E00026D242F21070FDF73FFA204603F08CFE24
:1030F000BDF80A208146442138464B4604F024FCA2
:10310000BDF80A000028E1D099F8000048B1492133
:1031100028465A4604F018FC4B2140464A4604F023
:1031200013FC48463146FDF729F90028D4D08EE13A
:1031300049F236005E21C0F60000042204F004FCCF
:1031400000204FF480510122C5F60200FDF7F8FC83
:1031500042F21070FDF708FA5846FDF7EDF948F60F
:1031600060703B21C0F600005A4604F0EDFB48F6C3
:10317000AA7749F2990A48F6877849F21509002694
:103180000DF10A04C0F60007C0F6000AC0F60008F8
:10319000C0F600090AE000BF48F2A060C0F20100DA
:1031A000FDF7E2F9132E06F1010625D242F2107066
:1031B000FDF7DAF9204603F027FEBDF80A200546A0
:1031C000442138462B4604F0BFFBBDF80A00002816
:1031D000E2D0287848B1492140465A4604F0B4FB71
:1031E0004B2148462A4604F0AFFB28465146FDF7DE
:1031F000C5F80028D6D02AE149F236005E21C0F693
:103200000000032204F0A0FB00204FF480510122B3
:10321000C5F60200FDF794FC42F21070FDF7A4F928
:103220005846FDF789F948F660703B21C0F600006A
:103230005A4604F089FB48F6AA7749F2990A48F6FB
:10324000877849F2150900260DF10A04C0F6000737
:10325000C0F6000AC0F60008C0F600090AE000BF88
:1032600048F2A060C0F20100FDF77EF9132E06F1CE
:10327000010625D242F21070FDF776F9204603F0E0
:10328000C3FDBDF80A200546442138462B4604F00C
:103290005BFBBDF80A000028E2D0287848B149213C
:1032A00040465A4604F050FB4B2148462A4604F05B
:1032B0004BFB28465146FDF761F80028D6D0C6E002
:1032C00049F236005E21C0F60000022204F03CFB09
:1032D00000204FF480510122C5F60200FDF730FCBA
:1032E00042F21070FDF740F95846FDF725F948F60F
:1032F00060703B21C0F600005A4604F025FB48F6FA
:10330000AA7749F2990A48F6877849F21509002602
:103310000DF10A04C0F60007C0F6000AC0F6000866
:10332000C0F600090AE000BF48F2A060C0F2010048
:10333000FDF71AF9132E06F1010625D242F210709C
:10334000FDF712F9204603F05FFDBDF80A2005469F
:10335000442138462B4604F0F7FABDF80A0000284D
:10336000E2D0287848B1492140465A4604F0ECFAA8
:103370004B2148462A4604F0E7FA28465146FCF716
:10338000FDFF0028D6D062E049F236005E21C0F68B
:103390000000012204F0D8FA00204FF480510122ED
:1033A000C5F60200FDF7CCFB42F21070FDF7DCF829
:1033B0005846FDF7C1F848F660703B21C0F60000A2
:1033C0005A4604F0C1FA48F6AA7749F2990A48F633
:1033D000877849F2150900260DF10A04C0F60007A6
:1033E000C0F6000AC0F60008C0F600090AE000BFF7
:1033F00048F2A060C0F20100FDF7B6F8132E06F106
:1034000001062DD242F21070FDF7AEF8204603F00F
:10341000FBFCBDF80A200546442138462B4604F043
:1034200093FABDF80A000028E2D0287848B1492173
:1034300040465A4604F088FA4B2148462A4604F092
:1034400083FA28465146FCF799FF0028D6D0019808
:10345000012801D103F0B0FB002003B0BDE8F08FDC
:1034600049F236005E21C0F60000002204F06CFA3A
:1034700006A0612104F068FA0198012801D103F047
:103480009BFB012003B0BDE8F08F00BF3C3C2D4802
:103490004330352D44454255472D3E3E205B256443
:1034A0005D484330352073656E6420434D4420668B
:1034B00061696C200A00000080B540F2EC0E4FF00C
:1034C000010CC2F2004E0CFA01F3AEF80800022023
:1034D0008EF812C088408EF80E10AEF81030AEF89C
:1034E0000A004FF01810CEF804008EF815208EF860
:1034F000132080BD0000000010B540F2BC34C2F2C1
:1035000000442046FFF764F840F294112068C2F2AC
:103510000041406A086010BDFEE7000000000000A6
:10352000B0B586B044F2E0400024C5F60200C5F60E
:10353000020401AD016841F001010160016801F080
:10354000010101910199016841F0040101600068E5
:10355000294600F00400019001980120019000200C
:10356000CDE902002046FDF713FA4FF40050019018
:1035700004F500602946FDF70BFA06B0B0BD000067
:10358000B0B50C460546FDF7D3FA012808D100BFB7
:1035900028462146FDF7CCFA0128F9D00120B0BD1C
:1035A0000020B0BD000000002DE9F04186B044F2DB
:1035B000E04040F20044C5F60200C5F6020401AD49
:1035C00001260168022741F002010160016801F053
:1035D000020101910199016841F002010160016855
:1035E00001F0020101910199016841F001010160BE
:1035F0000068294600F00100019001982046CDE9BD
:10360000016603960497FDF7C3F920462946019702
:10361000FDF7BEF9A4F5806029464FF00808CDF803
:103620000480FDF7B5F90420019020462946FDF7F6
:10363000AFF94FF61840A661CFF6FF70A76144F8C6
:10364000008006B0BDE8F0812DE9F04F87B0002082
:103650000690CDE90400CDE9020044F2E04042F6D4
:10366000000BC5F60200C5F6020B0122082701680F
:10367000012541F001010160016801F001010191A2
:103680000199016841F480610160016801F4806181
:1036900001910199016841F040010160016801F068
:1036A000400101910199016841F4007101600168D4
:1036B00001F4007101910199016841F080010160FC
:1036C000016801F0800101910199016841F4807164
:1036D00001600068082100F480700190019858464C
:1036E000FDF72EFAABF580584FF4405100224046CA
:1036F000FDF726FAABF5806644F6AA210022304693
:10370000FDF71EFA4FF4805101223046FDF718FAFA
:103710000221002258460224FDF712FAABF5006997
:103720004FF4004100224846FDF70AFAABF5205A53
:10373000802100225046FDF703FACDE9027502AF61
:1037400058463946CDE90454FDF722F94FF440506C
:103750003946CDE902054046CDE90454FDF718F994
:1037600045F6AA203946CDE902053046CDE9045494
:10377000FDF70EF958463946CDE90245CDE9045426
:10378000FDF706F94FF400403946CDE902054846F9
:10379000CDE90454FDF7FCF880203946CDE9020557
:1037A0005046CDE90454FDF7F3F807B0BDE8F08FBB
:1037B00080B588B040F2BC300022C2F20040002147
:1037C0000791C4F20102CDE905110291026047227E
:1037D000C0E9012140F2E7324161C0E903218021C3
:1037E0008161FEF7B5FE08B1FCF7AAFF4FF48050E7
:1037F000049040F2BC3004A9C2F20040FEF700FF82
:1038000008B1FCF79DFF00200190039040F2BC300E
:10381000C2F2004001A9FEF76BFE08B1FCF790FF71
:1038200008B080BD0000000080B540F2FC3044F2DA
:103830000041C2F20040C4F200010C2201604FF4CA
:10384000E13141600021C0E902110161C0E90521B7
:10385000C161FFF73DFA002808BF80BDBDE8804088
:10386000FCF76EBF00000000FEE700000000000053
:10387000FEE7000000000000B0B540F2400EC2F2CA
:10388000004EBEF81C40002C42D0BEF81A10002991
:1038900008BFB0BDDEF8082000234FF0000C06E0A2
:1038A000BEF81C400CF1010C0233A44530D249B3E0
:1038B000002403FB0121651C21F81400BEF81A1036
:1038C0008D42EDD203FB0121A51C01EB4401488090
:1038D000BEF81A108D423FBF03FB012101EB4401EA
:1038E0008880BEF81A103CBFE51C8D42D8D203FB7D
:1038F000012101EB44010434C880BEF81A108C4247
:10390000D7D3CDE700210CF1010C0233A445CED36F
:10391000B0BD0000000000002DE9F04F85B040F27E
:103920004006C2F20046B7898742C0F0AD81044626
:10393000F0898B468842C0F0A781D9889846002933
:1039400000F0A881B8F80430002B00F0A3810F9894
:103950000290203ADF0801205D0702FB01F118BF49
:1039600000EBD3070E9A0392D8F80020002301FB46
:103970000727CDF800B00BE00020410703F1010359
:103980009AB2B8F8061018BF01378A4280F08281D7
:103990000028F1D001934FF6FF71029803EB0B0959
:1039A00088426FEA0900049000F0EC804FF0000AB2
:1039B00011E000BF48F63360C0F6000004F064FA7E
:1039C000B8F804000AF1010ABBF1070F08BF01377C
:1039D000824580F0D3800AEB0400B28983B2397843
:1039E0001FFA89F59A424FF000020AF0070B38BF20
:1039F0000122F38901FA0BF1AB424FF0000338BF0B
:103A00000123090642EA030110D50029D2D1F18A27
:103A1000B3291DDCC1B35A29D2D1318A049A0A4490
:103A200001461046328B032A3ED9C9E70029C1D18D
:103A3000F18AB3291ADC002962D05A29C0D1318A0F
:103A4000049A0A4401461046328B032A68D9B7E724
:103A5000B4291FD0B1F5877FB2D1718AC043014428
:103A60004846328B032A1FD9AAE700BFB4294DD09C
:103A7000B1F5877FA4D1718AC04301444846328B97
:103A8000032A4DD99CE700BF4946328B032A0BD944
:103A900096E700BF318AC043728A084404991144F2
:103AA000328B032A3FF68CAFDFE802F00D020A1ECC
:103AB000328AC043104480B2328A904208D979E7F2
:103AC000728AC943114480B2328A90423FF672AF83
:103AD00089B2728A91423FF66DAF728B5143B268E0
:103AE00002EB4101039A3AE0328AC043738AC94328
:103AF0001044194480B2328A9042E9D95AE700BF93
:103B00004946328B032A0BD95AE700BF318AC0439A
:103B1000728A084404991144328B032A3FF650AF4D
:103B2000DFE802F00D020A20328AC043104480B25E
:103B3000328A904208D93DE7728AC943114480B263
:103B4000328A90423FF636AF89B2728A91423FF68E
:103B500031AF728B5143B26802EB4101029A21F8F6
:103B600010202DE7328AC043738AC9431044194498
:103B700080B2328A9042E7D91CE700BFDDF800B07E
:103B80007FE000BFA24600240EE000BF48F633608D
:103B9000C0F6000004F078F9B8F804000134072DED
:103BA00008BF013784426BD2387804F00705A8407B
:103BB0000006F1D504EB0A00B18982B29142E5D347
:103BC0001FFA89F2F1899142E0D3F18AB3290BDC23
:103BD000C1B15A29E0D1318A049A0A4401461046FB
:103BE000328B032A1DD9D7E7B42911D0B1F5877FCD
:103BF000D2D1718AC04301444846328B032A10D97E
:103C0000CAE700BF4946328B032A0AD9C4E700BF7E
:103C1000318AC043728A084404991144328B032AC2
:103C2000BAD8DFE802F00E030B2100BF328AC0438E
:103C3000104480B2328A904207D9A7E7728AC943FA
:103C4000114480B2328A9042A0D889B2728A9142DD
:103C50003FF69CAF728B5143B26802EB4101039A6D
:103C600021F8102098E700BF328AC043738AC94305
:103C70001044194480B2328A9042E6D986E700BFE8
:103C80005446019B79E600BF04A005B0BDE8F04FA3
:103C900004F0FAB805B0BDE8F08F00BF5061696E5E
:103CA000745F447261774368617220496E70757405
:103CB000206578636565647320746865206E6F7233
:103CC0006D616C20646973706C61792072616E67DC
:103CD000650D0000000000002DE9F04F95B040F2A6
:103CE00040050793C2F20045AF898742C0F0EC84DB
:103CF0008346E889884240F2E784129103211F98A5
:103D0000A1EB4206012810B240F0E4840028129B87
:103D100000F1608548F6FB5A48F6516848F675642C
:103D20004FF00009C0F6000AC0F60008C0F6000413
:103D30001AE000BF049E0F9F30B20621B0F1FF3F92
:103D4000A7EB0200C8BF013A01EB87014FF00A035D
:103D5000C8BF03EB800112B2781C0FFA80F90E4441
:103D60009145129B00F3368509EB0B004FF0FF3CA9
:103D700087B204960D901CFA80F00C90ABEB090012
:103D800086B21CFA80F00B9009EB03000A9081B216
:103D90001CFA80F00990A3EB090083B21CFA80F0B2
:103DA0000890149778420690704213960590484206
:103DB00011910390584210930290CDE90E2914E01E
:103DC000504604F061F8AA894046314603F0BCFD34
:103DD000EA892046119903F0B7FD09F101000E9A16
:103DE0000FFA80F910B28145A4DCA889129909EB79
:103DF00001071499BEB2884224D3E989B14221D384
:103E00000D9A120418BF5FEA074228D00C9A92B2AA
:103E10009042C0F04F83781E82B29142C0F04A8334
:103E2000E98AB32900F31A81002900F0BD825A29DA
:103E300015D1288A0C99C01B2A8B032A40F2C9820B
:103E40000DE000BF504604F01FF8AA8940461499BF
:103E500003F07AFDEA892046314603F075FDA88912
:103E60001399884224D3E989B14221D30F9A92B29F
:103E7000934518BF5FEA074227D00B9A92B290424F
:103E8000C0F02A83781E82B29142C0F02583E98A6D
:103E9000B32900F3F380002900F08C825A2914D151
:103EA000288A0B99C01B2A8B032A40F2A8820CE0B7
:103EB000504603F0E9FFAA894046139903F044FDF8
:103EC000EA892046314603F03FFDABEB0907A9899B
:103ED000BEB2B14228D3EA891198824224D31FFA94
:103EE00089F083451CBF0A985FEA004029D0781EFC
:103EF00083B29942C0F0B883099989B28A42C0F06E
:103F0000B383E98AB32900F3D980002900F02E8316
:103F10005A2916D1298A039A0A44014610462A8B47
:103F2000032A40F232830CE0504603F0ADFFAA8929
:103F30004046314603F008FDEA892046119903F016
:103F400003FDA989B14229D3EA891098824225D379
:103F50001FFA89F083452ED00F98129B80B28342BE
:103F600029D0781E83B29942C0F05683089989B24D
:103F70008A42C0F05183E98AB32900F38F80002977
:103F800000F0D8825A2916D1298A029A0A44014699
:103F900010462A8B032A40F2DC820CE0504603F0E4
:103FA00073FFAA894046314603F0CEFCEA892046D9
:103FB000109903F0C9FCA889129F4446D046A7EB8C
:103FC000090A13991FFA8AF6884227D3E989B14270
:103FD00024D30F9A92B2934500F0C0801FFA89F261
:103FE000974200F0BB800B9A92B29042C0F0B08032
:103FF000AAF1010082B29142C0F0AA80E98AB329F5
:104000001EDC00296AD05A2940F0A880288A0B9922
:10401000A0EB0A002A8B032A6FD99FE0404603F0E9
:1040200033FFAA892046139903F08EFCEA8948F6EB
:104030007560C0F60000314603F086FC8EE000BFDC
:10404000B42951D0B1F5877F40F08880698A059AFC
:1040500011442A8B032A50D980E000BFB42900F014
:10406000AF81B1F5877F7FF4FAAE698A069A114471
:104070002A8B032A40F2AD81F1E600BFB42900F09B
:10408000B581B1F5877F7FF420AF698A059A114425
:104090002A8B032A40F2B38117E700BFB42900F04E
:1040A0004F82B1F5877F7FF486AF688AC11B08987D
:1040B0002A8B032A40F24D827DE700BFB42900F02D
:1040C0005B82B1F5877F7FF43CAF688AC11B09989A
:1040D0002A8B032A40F2598233E700BF01460B982E
:1040E0002A8B032A09D939E0288A059A698A10445B
:1040F000A1EB0A012A8B032A30D8DFE802F00E0375
:104100000B1F00BF2A8AC043104480B22A8A904203
:1041100007D91DE06A8AC943114480B22A8A9042B5
:1041200016D889B26A8A914212D86A8B5143AA681A
:1041300002EB4101079A21F810200FE02A8AC043C0
:104140006B8AC9431044194480B22A8A9042E8D944
:1041500048F63360C0F6000003F096FEA889149973
:10416000884223D3E989B14220D30D9A120400F08A
:104170007B801FFA89F2974200F076800C9A92B207
:1041800090426BD3AAF1010082B2914266D3E98AD0
:10419000B3291DDC41B35A2966D1288A0C99A0EBBA
:1041A0000A002A8B032A2ED95EE000BF404603F0A6
:1041B0006BFEAA892046149903F0C6FBEA8948F6EB
:1041C0007560C0F60000314603F0BEFB4CE000BF56
:1041D000B4290FD0B1F5877F46D1698A069A114478
:1041E0002A8B032A0FD93FE001460C982A8B032A19
:1041F00009D939E0288A069A698A1044A1EB0A0194
:104200002A8B032A30D8DFE802F00E030B1F00BF11
:104210002A8AC043104480B22A8A904207D91DE0FE
:104220006A8AC943114480B22A8A904216D889B258
:104230006A8A914212D86A8B5143AA6802EB410103
:10424000079A21F810200FE02A8AC0436B8AC943DD
:104250001044194480B22A8A9042E8D948F6336063
:10426000C0F6000003F010FE09EB0B07A989BEB2EF
:10427000B1422DD3EA891098824229D338040F988D
:10428000C24665D080B2129BA04648F67564834250
:10429000C0F600042FD0781E83B29942C0F042814C
:1042A000089989B28A42C0F03D81E98AB3295FDC6E
:1042B000002900F0B1805A291DD1298A029A0A44A6
:1042C000014610462A8B032A40F2B58013E000BF56
:1042D0004046C24603F0D8FDAA8920463146A04692
:1042E00003F032FB48F67564EA89C0F600041099C1
:1042F000204603F029FBA989B142FFF461ADEA89A8
:1043000011988242FFF45CAD38041CBF0A985FEA42
:1043100000403FF462AD781E83B29942C0F0CC8178
:10432000099989B28A42C0F0C781E98AB3292BDC96
:10433000002900F037815A297FF44FAD298A039A6A
:104340000A44014610462A8B032A40F23A8144E58A
:10435000A889A04648F67564B042C0F60004FFF490
:104360002FADE88911998842BFF437AD28E500BF29
:10437000B42957D0B1F5877FBDD1688AC11B089891
:104380002A8B032A57D9B6E7B42900F01181B1F579
:10439000877F7FF422AD688AC11B09982A8B032A84
:1043A00040F20F8119E500BF01460C982A8B032AC1
:1043B0000FD954E501460B982A8B032A1FD984E5AF
:1043C000288A069A698A1044C91B2A8B032A3FF659
:1043D00046ADDFE802F040033D6500BF2A8AC043D6
:1043E000104480B22A8A904239D963E0288A059A1B
:1043F000698A1044C91B2A8B032A3FF666ADDFE8A1
:1044000002F03E033B6100BF2A8AC043104480B2E1
:104410002A8A904237D95FE008992A8B032A0AD961
:1044200069E700BF288A029A698AC01B11442A8B57
:10443000032A3FF660AFDFE802F05A03576B00BF74
:104440002A8AC043104480B22A8A904253D969E034
:104450006A8AC943114480B22A8A90422AD889B212
:104460006A8A914226D86A8B5143AA6802EB4101BD
:10447000079A21F81020F2E46A8AC943114480B2F5
:104480002A8A904228D889B26A8A914224D86A8BB3
:104490005143AA6802EB4101079A21F8102014E564
:1044A0002A8AC0436B8AC9431044194480B22A8ABD
:1044B0009042D4D948F63360C0F6000003F0E4FC23
:1044C000CDE400BF2A8AC0436B8AC9431044194413
:1044D00080B22A8A9042D6D948F63360C0F60000EE
:1044E00003F0D2FCF1E400BF6A8AC943114480B2F0
:1044F0002A8A904216D889B26A8A914212D86A8B67
:104500005143AA6802EB4101079A21F81020F2E614
:104510002A8AC0436B8AC9431044194480B22A8A4C
:104520009042E8D948F63360C0F6000003F0ACFCD6
:10453000E1E600BF08992A8B032A0AD93BE500BFB0
:10454000288A029A698AC01B11442A8B032A3FF6E3
:1045500032ADDFE802F04603435700BF2A8AC0436A
:10456000104480B22A8A90423FD955E009992A8B9B
:10457000032A0AD9E5E400BF288A039A698AC01B86
:1045800011442A8B032A3FF6DCACDFE802F050032B
:104590004D6300BF2A8AC043104480B22A8A9042E9
:1045A00049D961E009992A8B032A0AD9FFF715BC7A
:1045B000288A039A698AC01B11442A8B032A3FF672
:1045C0000CACDFE802F05C03596F00BF2A8AC043DD
:1045D000104480B22A8A904255D96DE06A8AC94354
:1045E000114480B22A8A904216D889B26A8A9142CE
:1045F00012D86A8B5143AA6802EB4101079A21F84D
:104600001020D8E42A8AC0436B8AC9431044194455
:1046100080B22A8A9042E8D948F63360C0F600009A
:1046200003F032FCFFF7C7BC6A8AC943114480B269
:104630002A8A904218D889B26A8A914214D86A8B21
:104640005143AA6802EB4101079A21F81020FFF7B5
:1046500078BC00BF2A8AC0436B8AC94310441944FE
:1046600080B22A8A9042E6D948F63360C0F600004C
:1046700003F00AFCFFF765BC6A8AC943114480B2A3
:104680002A8A904218D889B26A8A914214D86A8BD1
:104690005143AA6802EB4101079A21F81020FFF765
:1046A0009CBB00BF2A8AC0436B8AC943104419448B
:1046B00080B22A8A9042E6D948F63360C0F60000FC
:1046C00003F0E2FBFFF789BB44A015B0BDE8F04F53
:1046D00003F0DABB00287DD41E9D0027DDF81C9076
:1046E000049607EB0B0080B21299114414908EB21D
:1046F00001210091314692464A462B46012400F0A2
:104700008BF8ABEB0700314680B24A462B4611903E
:104710000094012400F080F8ABEB0A00129986B2F5
:10472000394489B230464A462B4613914FF001086E
:10473000009400F071F812984A46C01B2B4684B2D0
:1047400030462146CDF8008000F066F812984FF010
:104750000108A0EB0A00CDF8008086B2119831461E
:104760004A462B4600F058F8CDF8008031461498A0
:104770004A462B464FF0010800F04EF80AEB0B00BA
:10478000214686B24A4630462B46CDF800804FF08F
:10479000010800F041F8CDF80080304613994A46F0
:1047A0002B46049E00F038F830B252460621B0F194
:1047B000FF3FA7EB0A0001EB8701C8BF013A4FF0AA
:1047C0000A03C8BF03EB800112B2781C07B20E4483
:1047D000974285DD15B0BDE8F08F00BF5061696E6E
:1047E000745F44726177436972636C6520496E70CF
:1047F0007574206578636565647320746865206EE0
:104800006F726D616C20646973706C617920726184
:104810006E67650D000000002DE9F04F83B040F297
:1048200040060D46C2F200460090B789874231D358
:10483000F089A8422ED30C981F469146012843D1F7
:10484000002F00F0B9804FF0FF304FF0000A00EB6E
:1048500047060098A0EB0708EF1B002007E000BF09
:104860000AF1010A0FFA8AF0864240F3A58018EB9C
:104870000001F5D48DB20020002400BFC019EFD490
:1048800081B228464A4600F00BFA013420B2864233
:10489000F4DCE5E748F6FB50C0F6000003F0F4FA5C
:1048A000B28948F65160C0F60000009903F04CF858
:1048B000F28948F67560C0F60000294603B0BDE8ED
:1048C000F04F03F041B800BF002F00F0758048F6AC
:1048D00033640021C0F6000405E000BF01990131F6
:1048E00008B2B84268DA0098019101444FF0000A1A
:1048F000A1F1010808461FFA88FB029109E000BFF8
:10490000204603F0C1FA0AF1010A0FFA8AF0B84210
:10491000E4DAB0895845F3D30AEB0502F189501E59
:1049200083B29942ECD3F38AB32B09DC01464046AB
:104930009BB15A2BE7D1308A4146801A0DE000BF67
:10494000B42B05D0B3F5877FDDD1718A029A03E0DD
:10495000308A029B718AC01A891A328B032AD2D8F4
:10496000DFE802F00D020A1E328AC043104480B212
:10497000328A904207D9C3E7728AC943114480B290
:10498000328A9042BCD889B2728A9142B8D8728B6E
:104990005143B26802EB410121F81090B3E700BF28
:1049A000328AC043738AC9431044194480B2328AA0
:1049B0009042E8D9A4E700BF03B0BDE8F08F000043
:1049C0002DE9F04F89B040F240040890C2F2004453
:1049D000A589854208D248F60B60C0F6000009B0F0
:1049E000BDE8F04F03F050BA0F46E18948F60B607E
:1049F0009942C0F60000F2D31646954228BFB9424C
:104A0000EDD314980028139807901298CDE905303B
:104A100038D09F4280F0E2804FF0FF3A08984FF084
:104A20000109B04238BF4FF0010A0CE048F6C4500B
:104A3000C0F6000003F028FA01370599B8B25C46C9
:104A4000884280F0CB80A0890899A3468842EDD3A4
:104A5000B042EBD3BDB2BBF80E00089CA842E5D330
:104A60001FFA84F8CDF8009040462946DDE9062378
:104A7000FFF7D2FEB045DFD0089854448642EFD10C
:104A8000DAE700BFA2464FF0FF38089C4FF001095B
:104A9000B44238BF4FF00108A5B2CDF800902846C7
:104AA0003946DDE90623FFF7B7FEB54203D0089883
:104AB00044448642F0D1BAF80C000899884227D2C3
:104AC00048F6C450D346C0F6000003F0DDF9BBF849
:104AD0000C00D946B04207D3B9F80E0005998842B8
:104AE00028BFB84280F07E8048F6C450C0F600006F
:104AF00003F0CAF9B9F80C00B04247D248F6C450E6
:104B0000C0F6000009B0BDE8F04F03F0BDB900BF2A
:104B1000BAF80E00B842D3D305998842D0D305988D
:104B2000D346C41B48BF6442B8424FF6FF7088BFEB
:104B30000120C4F1000A02903846DDF82080D146F9
:104B4000039080B2049003E04FEA4A00002815DD8C
:104B50001FFA88F50120009028460499DDE9062314
:104B6000FFF75AFEB9EB4A0FEEDC08988542AED04B
:104B7000AAEB040AA8F10108E6E700BFDDE904108A
:104B80008142A4D0DDE902010844D9E708998842AE
:104B900048F6C450C0F60000FFF421AFB9F80E107B
:104BA000DDF814904945FFF41AAF08984FF6FF74EA
:104BB0004FF001083746864238BF0124BDB2CDF818
:104BC000008028464946DDE90623FFF725FE0898C0
:104BD000854203D008982744B042EFD109B0BDE820
:104BE000F08F00BF05984FF6FF71B7EB000BB04692
:104BF00048BFCBF1000B8742CBF1000488BF0121F5
:104C0000A2460291039080B2049003E04FEA4A006A
:104C1000002815DD1FFA88F5012000902846049928
:104C2000DDE90623FFF7F8FDB4EB4A0FEEDCB542F1
:104C30003FF460AFAAEB0B0AA8F10108E6E700BF5A
:104C40000498B8423FF456AFDDE902010844D9E7C1
:104C500040F2400C002BC2F2004CCCF80800009847
:104C6000ACF81010ACF81220ACF814004FF00000B3
:104C7000ACF81A10ACF81C20ACF81630ACF81800E0
:104C800018BFB42B06D108461146ACF80C00ACF89E
:104C90000E1070471046ACF80C00ACF80E107047C0
:104CA00010B540F2400EC2F2004EBEF80C30834206
:104CB00067D3BEF80E308B4263D3BEF81630B32BE9
:104CC0000ADCABB15A2B18BF10BDBEF81030C94377
:104CD0008446194418E000BFB42B0BD0B3F5877F8E
:104CE0003ED1BEF81230C04303EB000C0CE000BF15
:104CF0008C4608E0BEF810C0C043BEF81230C9436D
:104D0000604403EB010C0146BEF81800032827D8C5
:104D1000DFE800F012020C28BEF81000C94301447D
:104D200088B2BEF8103098420BD92AE0BEF81200C3
:104D30006FEA0C0300EB030C88B2BEF81030984207
:104D40001FD81FFA8CF1BEF81230994219D8BEF85C
:104D50001A305943DEF8083003EB410121F81020E6
:104D600010BD00BFBEF81040C943BEF812306FEA54
:104D70000C00214403EB000C88B2BEF810309842BE
:104D8000DFD948F63360C0F60000BDE8104003F0FC
:104D90007BB80000000000002DE9F04F83B0012037
:104DA00001F0AEFE40F24005C2F20045A989142987
:104DB000C0F090808046E8891F28C0F08B8048F6BC
:104DC000FB5A48F6516B48F6756748F633690B266F
:104DD000C0F6000AC0F6000BC0F60007C0F60009D6
:104DE00014E000BFB4B2504603F04EF8AA89142173
:104DF000584602F0A9FDEA893846214602F0A4FD92
:104E0000B0B21F286CD0A9890136E8891429E9D3EA
:104E1000B2B281B29142E5D33004F4D0701E82B2B6
:104E2000914203D2484603F02FF8E9E7E98AB32913
:104E30000ADCA9B15A29E3D1288A1321801B2A8BC5
:104E4000032A1AD9DCE700BFB4290FD0B1F5877F58
:104E5000D6D1698A14392A8B032A0ED9D0E700BF2C
:104E6000014613202A8B032A07D9C9E7288A698AB1
:104E70001438891B2A8B032AC2D8DFE802F00E03FC
:104E80000B1F00BF2A8AC043104480B22A8A904276
:104E900007D9C7E76A8AC943114480B22A8A904277
:104EA000C0D889B26A8A9142BCD86A8B5143AA6839
:104EB00002EB410121F81080A2E700BF2A8AC0431B
:104EC0006B8AC9431044194480B22A8A9042E8D9B7
:104ED000A8E700BF48F6C450C0F6000002F0D4FFB7
:104EE0001F2001F00DFEA9891E29C0F08F80804689
:104EF000E8891528C0F08A8048F6FB5A48F6516BBD
:104F000048F6756748F633690A26C0F6000AC0F607
:104F1000000BC0F60007C0F6000911E0504602F091
:104F2000B3FFAA895846214602F00EFDEA891521F1
:104F3000384602F009FD1E2C6ED0A9890136E88999
:104F4000B4B289B2A14228BF1428E7D93004F4D002
:104F5000701E82B2914203D2484602F095FFEAE702
:104F6000E98AB3290CDCB9B15A29E4D1298AA1F123
:104F70001502014610462A8B032A1AD9DBE700BF27
:104F8000B4290FD0B1F5877FD5D1688A811B142051
:104F90002A8B032A0DD9CEE714212A8B032A08D99C
:104FA000C9E700BF288A698A801B15392A8B032A22
:104FB000C1D8DFE802F00E030B1F00BF2A8AC043EE
:104FC000104480B22A8A904207D9C5E76A8AC94349
:104FD000114480B22A8A9042BED889B26A8A91422C
:104FE000BAD86A8B5143AA6802EB410121F81080BC
:104FF000A1E700BF2A8AC0436B8AC9431044194401
:1050000080B22A8A9042E8D9A6E700BF48F6C45089
:10501000C0F6000002F038FF0E2001F071FD0346DB
:10502000142015210A2200270126CDE90067FEF78A
:1050300053FE012001F064FD04461F2001F060FDD5
:1050400040EA040214201521012302270097FFF7EC
:10505000E3FB102001F054FDA9892C29C0F09080B9
:105060008046E8891F28C0F08B8048F6FB5A48F636
:10507000516B48F6756748F633690B26C0F6000A8F
:10508000C0F6000BC0F60007C0F6000914E000BF30
:10509000B4B2504602F0F8FEAA892C21584602F01C
:1050A00053FCEA893846214602F04EFCB0B21F2874
:1050B0006CD0A9890136E8892C29E9D3B2B281B232
:1050C0009142E5D33004F4D0701E82B2914203D2F3
:1050D000484602F0D9FEE9E7E98AB3290ADCA9B11A
:1050E0005A29E3D1288A2B21801B2A8B032A1AD91B
:1050F000DCE700BFB4290FD0B1F5877FD6D1698A2C
:105100002C392A8B032A0ED9D0E700BF01462B2069
:105110002A8B032A07D9C9E7288A698A2C38891B70
:105120002A8B032AC2D8DFE802F00E030B1F00BF50
:105130002A8AC043104480B22A8A904207D9C7E71E
:105140006A8AC943114480B22A8A9042C0D889B27F
:105150006A8A9142BCD86A8B5143AA6802EB41012A
:1051600021F81080A2E700BF2A8AC0436B8AC94396
:105170001044194480B22A8A9042E8D9A8E700BFB7
:1051800048F6C450C0F6000002F07EFE3F2001F059
:10519000B7FCA9893629C0F08F808046E889152898
:1051A000C0F08A8048F6FB5A48F6516B48F675679E
:1051B00048F633692226C0F6000AC0F6000BC0F696
:1051C0000007C0F6000911E0504602F05DFEAA8912
:1051D0005846214602F0B8FBEA891521384602F00C
:1051E000B3FB362C6ED0A9890136E889B4B289B2F6
:1051F000A14228BF1428E7D93004F4D0701E82B22F
:10520000914203D2484602F03FFEEAE7E98AB32919
:105210000CDCB9B15A29E4D1298AA1F11502014661
:1052200010462A8B032A1AD9DBE700BFB4290FD016
:10523000B1F5877FD5D1688A811B14202A8B032A78
:105240000DD9CEE714212A8B032A08D9C9E700BF5C
:10525000288A698A801B15392A8B032AC1D8DFE87E
:1052600002F00E030B1F00BF2A8AC043104480B215
:105270002A8A904207D9C5E76A8AC943114480B295
:105280002A8A9042BED889B26A8A9142BAD86A8B79
:105290005143AA6802EB410121F81080A1E700BF49
:1052A0002A8AC0436B8AC9431044194480B22A8AAF
:1052B0009042E8D9A6E700BF48F6C450C0F6000007
:1052C00002F0E2FD362001F01BFC03462C201521E4
:1052D0000A2200260127CDE90076FEF7FDFC10200A
:1052E00001F00EFC04463F2001F00AFC40EA0402F3
:1052F0002C201521012302240094FFF78DFA0620AB
:1053000001F0FEFBCDE900070120012140224023EE
:105310000296FFF755FBA8890528C0F09F80E98910
:105320002029C0F09B8040F228042026C2F20044CD
:105330004FF000084FF6E079A288E38805328242F8
:105340004FF0480288BF03F1200613FA86F0234687
:1053500088424FF0050088BF2026CDE90098B1B201
:10536000FEF7DAFAA088A989E288471D10FA87F0CB
:10537000884288BF1644EB8912FA86F29A4288BFA7
:105380000527884288BF05279A424FF0650288BFEB
:105390002026B8B22346B1B2CDE90098FEF7BCFA98
:1053A000A088A989E288074410FA87F0884288BF5C
:1053B0001644EB8912FA86F29A4288BF0527884282
:1053C00088BF05279A424FF06C0288BF2026B8B2EA
:1053D0002346B1B2CDE90098FEF79EFAA088A989CC
:1053E000E288074410FA87F0884288BF1644EB89A8
:1053F00012FA86F29A4288BF0527884288BF05279D
:105400009A424FF06C0288BF2026B8B22346B1B250
:10541000CDE90098FEF780FAA088A989E3883A18B8
:1054200010FA82F0884288BF1E44EF8913FA86F38F
:10543000BB4288BF0522884288BF0522BB42234663
:1054400088BF202690B26F22B1B2CDE90098FEF756
:1054500063FAA88905280BD2A8E000BF48F6885057
:10546000C0F6000002F010FDA8890528C0F09E805B
:10547000E9892D29C0F09A8040F228042D26C2F235
:1054800000444FF61F084FF00009A288E388053258
:1054900082424FF0770288BF03F12D0613FA86F09F
:1054A000234688424FF0050088BF2D26CDE900989D
:1054B000B1B2FEF731FAA088A989E288471D10FA37
:1054C00087F0884288BF1644EB8912FA86F29A4226
:1054D00088BF0527884288BF05279A424FF06F0290
:1054E00088BF2D26B8B22346B1B2CDE90098FEF7A9
:1054F00013FAA088A989E288074410FA87F0884245
:1055000088BF1644EB8912FA86F29A4288BF0527B3
:10551000884288BF05279A424FF0720288BF2D2625
:10552000B8B22346B1B2CDE90098FEF7F5F9A088EC
:10553000A989E288074410FA87F0884288BF164498
:10554000EB8912FA86F29A4288BF0527884288BF03
:1055500005279A424FF06C0288BF2D26B8B2234629
:10556000B1B2CDE90098FEF7D7F9A088A989E38800
:105570003A1810FA82F0884288BF1E44EF8913FA65
:1055800086F3BB4288BF0522884288BF0522BB4202
:10559000234688BF2D2690B26422B1B2CDE900988F
:1055A000FEF7BAF903B0BDE8F08F00BF48F68850A7
:1055B000C0F6000003B0BDE8F04F02F065BC00008B
:1055C0007047000000000000F0B581B044F22C47A5
:1055D000C5F6020757F8042C02F00302032A03D190
:1055E000012001B0F0BD00BF054657F82C0C0C4659
:1055F00020F0806047F82C0CFBF7B2FA064600BF9B
:1056000057F82C0C000105D5FBF7AAFA801B0228DD
:10561000F6D964E057F8040CEE6895E80E0020F423
:105620007C30012C40EA0130A2F101016FF35F21CF
:105630004FF47E4202EB432247F8040C92B24FF043
:10564000FE4302EB01004FF4FE012A6901EB064123
:1056500001F4FE0103EB0262084402F0FE4108443B
:10566000F8603868696920F0C00040EA01003860DD
:105670003868A96920F0200040EA010038603868E5
:105680004FF6F87120F0100038603869EA6920EAB6
:1056900001004FF4001140EAC2003861386808BFC9
:1056A0004FF4801140F01000002C386008BF4FF418
:1056B000002138680843386057F82C0C40F08060AF
:1056C00047F82C0CFBF74CFA044600BF57F82C0C9B
:1056D000000107D4FBF744FA001B0328F6D303208C
:1056E00001B0F0BD002001B0F0BD000000000000DE
:1056F000F0B581B044F22C47C5F6020757F8042CE8
:1057000002F00302032A03D1012001B0F0BD00BF63
:10571000054657F82C0C0C4620F0805047F82C0C0E
:10572000FBF71EFA064600BF57F82C0C800005D583
:10573000FBF716FA801B0228F6D964E057F8040C30
:10574000EE6895E80E0020F07C70012C40EA0150D4
:10575000A2F101016FF35F214FF47E4202EB43227D
:1057600047F8040C92B24FF0FE4302EB01004FF4F5
:10577000FE012A6901EB064101F4FE0103EB02621E
:10578000084402F0FE41084478613868696920F4F1
:10579000406040EA010038603868A96920F4007070
:1057A00040EA0100386038684FF6F87120F48070E4
:1057B0003860B869EA6920EA01004FF0807140EA78
:1057C000C200B861386808BF4FF4000140F480702F
:1057D000002C386008BF4FF48001386808433860F7
:1057E00057F82C0C40F0805047F82C0CFBF7B8F918
:1057F000044600BF57F82C0C800007D4FBF7B0F923
:10580000001B0328F6D3032001B0F0BD002001B037
:10581000F0BD0000000000002DE9F04F8EB040F216
:105820002002C2F2004229B11188B2F804E0B2F8B5
:1058300002900CE041F200014FF0020E4FF080099F
:10584000C0F280011160022191804FF480510D91CE
:1058500040F2EC01C2F2004191F91220079256B2D7
:1058600082EAE6156FEAE6162E4476B2002E00F1C3
:1058700085820B899DB2002D00F080824A89C44345
:1058800005FB00F709685008039204EB52046843D3
:105890006C43059001EB470242F21848C5F6020836
:1058A000029201EB44000190F4B2581E00904FF6B2
:1058B000FC7003EA00070A974FF2004703F0030267
:1058C000CFF6FF770492069507E000BF0998069D82
:1058D0000028A0F1010440F35182079800280DD45C
:1058E00004FB05F0039A012600235043029A02EBC1
:1058F000400C05980CEB40000BE000BF059A009BA4
:10590000019E02FB04F006EB40004FF6FF7600EB31
:10591000420C042D0B9609940C90C0F02F810025A9
:105920000D9C00BF18B24FF4005B72464FF4805ECE
:105930003CF810A080261821043514EA0A0FC5F699
:10594000020108BF4FF0005B19EA0A0F4FF0020492
:1059500048F807B0934608BF4FF0805E12EA0A0F7E
:1059600048F807E008BF4FF400060E604FF4004609
:10597000DDF830E00D9A3EF8100010424FF600427C
:1059800008BF4FF00046CFF6FF7210EA090F48F843
:1059900002604FF4805208BF4FF4003410EA0B0F3E
:1059A0004FF00800C8F8004008BF4FF40020C8F8C6
:1059B00000004FF08050C8F80000DDF82CA0C8F8B7
:1059C000002003EB0A000D9A06B24FF480535044B6
:1059D0003CF8164022424FF4005208BF4FF00052EC
:1059E00019EA040F48F807204FF0800208BF4FF073
:1059F00080531BEA040F4FF6004448F80730CFF6F7
:105A0000FF7408BF4FF400020A603EF816200D9B99
:105A100002261A424FF4004308BF4FF0004312EA37
:105A2000090F48F804304FF4805308BF4FF4003694
:105A300012EA0B0F4FF00802C8F800604FF400564E
:105A400008BF4FF40022C8F800204FF08052C8F879
:105A5000002002B2C8F800300D9C50443CF81230CF
:105A60001C424FF4805408BF4FF0005619EA030F50
:105A700048F807604FF0020608BF4FF080541BEA59
:105A8000030F4FF0800348F807404FF6004408BF6B
:105A90004FF40003CFF6FF740B603EF812200D9B0D
:105AA0001A424FF4004308BF4FF0004312EA090FB7
:105AB00048F804304FF4805308BF4FF4003612EA20
:105AC0000B0F4FF00802C8F800604FF4005608BFF3
:105AD0004FF40022C8F800204FF08052C8F8002090
